:100000000C9434000C9451000C9451000C94510049
:100010000C9451000C9451000C9451000C9451001C
:100020000C9451000C9451000C9451000C9451000C
:100030000C9451000C9451000C9451000C945100FC
:100040000C9451000C9451000C9451000C945100EC
:100050000C9451000C9451000C9451000C945100DC
:100060000C9451000C94510011241FBECFEFD8E026
:10007000DEBFCDBF13E0A0E0B1E0E8EDF2E102C0E9
:1000800005900D92A839B107D9F723E0A8E9B3E0AC
:1000900001C01D92AD39B207E1F70E94DA060C9457
:1000A0006A090C9400005D988AE18A95F1F700C016
:1000B0005D9A85E38A95F1F700005D9816BC4C9B2C
:1000C000FECF81E00E94A80389E093E00E94EF0345
:1000D00086B590E04C99FECF66B570E0861797071D
:1000E000ECF4681B790B072E000C880B990B0E940F
:1000F0004D0824E43BE84CE85FE30E94FD080E94C1
:100100001508072E000C880B990B0E944D0824E45B
:100110003BE84CE85FE30E94FD08089560E070E072
:10012000CB0108958F929F92AF92BF92CF92DF92B0
:10013000FF920F931F93CF93DF93CDB7DEB72A972C
:100140000FB6F894DEBF0FBECDBFFAB004B115B143
:100150008FEF8AB98EEF84B985B98AE0E2E0F1E0E9
:10016000DE01119601900D928A95E1F717B880ECA7
:1001700080937C0087E880937A0080917A00806485
:1001800080937A0060E070E0CB010E9415084B017B
:10019000CB0164E670E00E945907CB012AE030E011
:1001A000B9010E945907482FC401B9010E9459079B
:1001B000E82FCB01B9010E94590761E070E06C0F94
:1001C0007D1F640F711DAB017DEFA1E0B0E0AC0FAE
:1001D000BD1FA80FB11D6BEFCC24C394D12CCC0E46
:1001E000DD1ECE0ED11C87EFFA0190819BB975B947
:1001F000EFE1FEE43197F1F700C000009C919BB95C
:100200005F9A65B9EFE1FEE43197F1F700C00000B5
:10021000F60190819BB985B9EFE1FEE43197F1F7E2
:1002200000C0000021503109F9F6FAB804B915B937
:10023000C4012A960FB6F894DEBF0FBECDBFDF9182
:10024000CF911F910F91FF90DF90CF90BF90AF9013
:100250009F908F9008958DE093E00E94EF0340916E
:10026000980350919903052E000C660B770B22E042
:100270008AE00E94FB032FEF81EE94E02150804042
:100280009040E1F700C0000008950E94EF032FEFB7
:1002900081EE94E0215080409040E1F700C00000E2
:1002A0000895009711F40C945300019721F060E039
:1002B00070E0CB0108952B988AE18A95F1F700C090
:1002C0002B9A85E38A95F1F700002B9816BC1C9BAE
:1002D000FECF86B590E01C99FECF66B570E086171C
:1002E00097072CF7681B790B072E000C880B990BCE
:1002F0000E944D0824E43BE84CE85FE30E94FD08BF
:100300000E941508072E000C880B990B0E944D08BF
:1003100024E43BE84CE85FE30E94FD0808958AE08E
:1003200090E0439AEFECF7E03197F1F700C000005E
:100330004398EFE4F6E43197F1F700C0000001972D
:1003400081F7439880E293E00C9445018AE090E0C5
:10035000439AEFEDFEE23197F1F700C000004398B9
:10036000EFE3FFE13197F1F700C00000019781F75B
:1003700043988CE293E00E944501FFEF23EC89E073
:10038000F15020408040E1F700C000000C948F0144
:1003900083EA84BD85E085BD16BC0895E9EBF0E0F5
:1003A00080818260808380818E7F808383E18093DF
:1003B000B800089580939A038091BC00846A80936A
:1003C000BC008091BC0087FFFCCF8091B900887F82
:1003D000883021F0803111F08EEF08958FEF08956D
:1003E000880F90919A03892B8093BB008091BC0069
:1003F0008F7D8093BC008091BC0080688093BC009E
:100400008091BC0087FFFCCF80919A03811107C0C7
:100410008091B900887F883179F08EEF089581301E
:1004200069F4E091B900E87FE853E131B0F7F0E01A
:10043000E35EFE4F808108958FEF089580E0089578
:100440008093BB008091BC0080688093BC00809149
:10045000BC0087FFFCCFE091B900E87FE852E131B2
:1004600028F4F0E0E45FFE4F808108958EEF089558
:1004700083E3815011F48CEF08959091BC0097FFB5
:10048000F8CF8DEF0895811115C08091BC00806474
:100490008093BC008091BC0080688093BC000E9467
:1004A00038028091B900887F803541F0883531F07D
:1004B0008EEF08958091BC008F7BEACF8091BB00C6
:1004C00008958091BC0080698093BC008091BC003D
:1004D00084FFFCCF0895CF93C82F80E00E94DA01FB
:1004E0008C2FCF910C94F0010C9461020C9420029B
:1004F000CF93C82F8CE30E946B0280E00E94200201
:100500008C2F0E942002CF910C946102CF93DF9335
:1005100081E20E94780280E00E9478028FE70E94C8
:10052000780282E20E94780280E00E94780287E0EE
:100530000E9478028CE30E946B0280E40E942002F9
:10054000C0E0D4E080E00E9420022197D9F781E248
:100550000E94780280E00E9478028FE70E94780271
:1005600082E20E94780280E00E94780287E00E9486
:1005700078028CE30E946B0280E4DF91CF910C94AF
:1005800020020E94CE018EEA0E94780285ED0E9430
:10059000780280E80E94780288EA0E9478028FE35D
:1005A0000E94780283ED0E94780280E00E94780227
:1005B00080E40E9478028DE80E94780284E10E9423
:1005C000780280E20E94780280E00E94780281EA4C
:1005D0000E94780288EC0E9478028AED0E947802DC
:1005E00082E10E94780281E80E9478028FEC0E94EA
:1005F000780289ED0E94780281EF0E9478028BEDEB
:100600000E94780280E40E94780284EA0E947802C4
:1006100086EA0E9478028FEA0E9478020C94860291
:10062000CF93DF93C82FD62F80939B0360939C03B7
:1006300081E20E9478028D2F0E9478028FE70E944B
:10064000780282E20E9478028C2F0E94780287E072
:100650000E9478028CE30E946B0280E4DF91CF91CC
:100660000C942002883018F467FF0C94100308954E
:100670005F926F927F928F929F92AF92BF92CF9232
:10068000DF92EF92FF920F931F93CF93DF93882E09
:100690007B0127E0281708F4812C912C85E0682E37
:1006A000F701E90DF11D8081811110C0DF91CF911B
:1006B0001F910F91FF90EF90DF90CF90BF90AF9080
:1006C0009F908F907F906F905F900895D6E06F011C
:1006D0006D2F882D0E943203CD2F712CF601E70D6E
:1006E000F11D0081002311F0C7FF0DC08FEF99EFBE
:1006F00020E0815090402040E1F700C00000D15040
:1007000039F79394CDCF0052069D80011124B12C6E
:10071000A12C552453945C0EC7FD10C0F501E00FC9
:10072000F11FE25DFE4F80810E9420028FEFA81A28
:10073000B80AC52D95E0A916B10459F780E00E94CA
:10074000200225E32A95F1F70000CF5F7394C6CF0E
:10075000883028F480939B0360E00C943203089562
:1007600080919B038F5F877080939B0360E00C9464
:1007700032030F931F93CF93DF93C82F80919C0375
:100780008B3720F5CA3011F1C05285E0C89FE001D7
:10079000112410E000E0F801EC0FFD1FE25DFE4FB8
:1007A00080810E94200280919C038F5F80939C0334
:1007B0000F5F1F4F0530110571F780E00E94200286
:1007C00080919C038F5F80939C0304C00E94B003C0
:1007D000CA30D1F6DF91CF911F910F910895CF9339
:1007E000DF93EC018991811103C0DF91CF910895CE
:1007F0000E94B903F7CF2F923F924F925F926F9270
:100800007F928F929F92AF92BF92CF92DF92EF92A0
:10081000FF920F931F93CF93DF93CDB7DEB72A9745
:100820000FB6F894DEBF0FBECDBF182F4A015B0193
:10083000722E8230D1F5022F10E0EE24E394F12CD9
:1008400001501109C8F42A960FB6F894DEBF0FBE06
:10085000CDBFDF91CF911F910F91FF90EF90DF906F
:10086000CF90BF90AF909F908F907F906F905F9050
:100870004F903F902F900895A701002E02C0440F83
:10088000551F0A94E2F7052E000C660B770B4821E2
:1008900059216A217B2181E0452B462B472B09F406
:1008A00080E0805D0E94B903CBCF81149104A10444
:1008B000B10409F445C0FE0131967F016F0100E0EB
:1008C000282E312C512C412C7016D9F08114910412
:1008D000A104B10499F0682CC501B401A2019101F1
:1008E0000E946D0749015A01129F60181124F601F8
:1008F00060820F5FFFEFCF1ADF0AE6CFFAE0F7154D
:1009000080F40E0D1F2D111D0E151F0509F49BCF30
:10091000F80182918F018A3038F0895C0E94B90316
:10092000F3CFF6011082E5CF805DF8CF80E30E941F
:10093000B9031F5F171509F486CF1A30B9F783CFB3
:1009400010E0F8CF8F929F92AF92BF92CF92DF923A
:10095000EF92FF926B017C010E941C084B015C012D
:100960002FEFBC01A4018AE00E94FB038EE20E94EB
:10097000B903C501B4010E944B089B01AC01C7013A
:10098000B6010E94A30720E034E244E759E40E9444
:10099000FD080E941C08AB01BC012FEF8AE0FF900C
:1009A000EF90DF90CF90BF90AF909F908F900C947E
:1009B000FB034F925F926F927F92AF92BF92CF9262
:1009C000DF92EF92FF920F931F93CF93DF93CDB7F8
:1009D000DEB7FE017196A190B1908F014AE0E42E3E
:1009E000F501808181110FC0DF91CF911F910F918F
:1009F000FF90EF90DF90CF90BF90AF907F906F907F
:100A00005F904F900895853209F0DDC065018FEF4A
:100A1000C81AD80AF501218180ED820F8A3008F0CA
:100A2000D6C0F12C09C0FE9C200D112430EDF32E10
:100A3000F20EF60121816A01A6014F5F5F4F80ED42
:100A4000820F8A3080F3283509F4A4C02CF52434B1
:100A500009F475C06CF4223409F4A6C023340CF0F8
:100A600047C0253209F04DC085E20E94B90349C054
:100A70002335A1F1253509F4C6C0263409F041C05B
:100A8000580184E0A80EB11CF80160817181828157
:100A900093810E94A20434C0263691F3BCF423361D
:100AA00039F12436A9F1223661F55801F2E0AF0E92
:100AB000B11CF80140815181FFEFFF1202C090E1AB
:100AC000F92E70E060E02F2D82E053C0253709F445
:100AD00055C0283709F4B9C0233799F45801F2E01A
:100AE000AF0EB11CF801808191810E94EF0308C014
:100AF0005801F2E0AF0EB11CF80180810E94B903E9
:100B000085015601FFEFAF1ABF0A6ACFFF24FA949E
:100B10005801F2E0AF0EB11CF8010081118117FFFE
:100B200006C01195019511098DE20E94B903A80133
:100B3000110F660B770B2F2D1BC0FF24FA94580161
:100B4000F4E0AF0EB11CF8014080518062807380E8
:100B500077FE0BC07094609450944094411C511CDB
:100B6000611C711C8DE20E94B9032F2DB301A201FB
:100B70008AE00E94FB03C4CFFF24FA945801F2E0FC
:100B8000AF0EB11CF8014081518170E060E0D3CF1D
:100B9000FF24FA945801F4E0AF0EB11CF801408133
:100BA0005181628173815AC0580184E0A80EB11C42
:100BB000F8014081518162817381FFEFFF1283CF81
:100BC00080E1F82E80CF0E94B90365019ACF2835C5
:100BD000F9F21CF5243409F4B0CF6CF4223409F096
:100BE0003DCF5801F4E0AF0EB11CF80140815181B6
:100BF00062817381E5CF233509F470CFFF24FA9425
:100C0000253509F03ACF5801F4E0AF0EB11CF801D8
:100C100040815181628173818ECF263609F430CFB5
:100C200064F4233609F464CF243609F46FCF2236F6
:100C300009F067CFFF24FA9438CF253709F49CCF09
:100C4000FF24FA94283709F047CF5801F2E0AF0E9D
:100C5000B11CF8014081518170E060E02F2D80E1EE
:100C600088CFEF92FF920F931F93CF93DF9385303E
:100C7000E8F56536D8F5C62FD82FD295DD0FD07E92
:100C800068E06D0F80E00E9432034C2F50E070E06E
:100C900060E023E08AE00E94FB038C2F82958F7036
:100CA00007E0081BC695C77088E090E08C1B91098F
:100CB0001FEF01C0110F8A95EAF7C1E0D45F6D2FD5
:100CC0008C2F0E943203E12CC01728F0EE24EA9406
:100CD0000C1301C0E12E8CE0F82E8E2D0E94200214
:100CE000FA94F110FACFCF5FC83049F7DF91CF9176
:100CF0001F910F91FF90EF9008951F93CF93DF9373
:100D0000853048F5653638F5162FC82FCC0FCF5FE4
:100D100060E08C2F0E943203D0E0D11312C01D2F4F
:100D20001436A1F469E68C2F0E9432034D2F50E057
:100D300070E060E023E08AE0DF91CF911F910C9496
:100D4000FB038FEF0E942002DF5FE7CF80E00E946D
:100D500020021F5FE5CFDF91CF911F9108950F9380
:100D60001F93CF93DF938C0160E080E00E9410031B
:100D70008CE30E946B0280E40E942002E8011C5F69
:100D800089910E942002C017D107D1F7DF91CF913E
:100D90001F910F91089587EA0C94780286EA0C94CB
:100DA0007802CF93C82F81E80E9478028C2FCF91D0
:100DB0000C9478028FEF84B98AB90E94C8010E940E
:100DC000C10280E00E94A8038AE393E00E94EF033F
:100DD0008FE39CE90197F1F700C000000E945300E7
:100DE0006B017C0181E00E94A803C701B6010E944B
:100DF0001C08AB01BC0123E08AE00E94FB0320E059
:100E000030E040E251E4C701B6010E94100887FFBC
:100E100036C080E00E94A8038FE393E00E94450162
:100E20000E949200EC0181E00E94A803AE010D2E09
:100E3000000C660B770B22E08AE00E94FB039FEF19
:100E400023EC89E0915020408040E1F700C0000091
:100E500080E0C436D10534F10E94A80388E593E010
:100E60000E9445019FEF23ED80E391502040804098
:100E7000E1F700C000000E94A6010E948F0181E0FE
:100E800090E00E94510120E030E040E251E40E94F5
:100E9000100887FF04C00E94A6010E948F010E94D3
:100EA0002B018FCF0E94A8038AE893E00E9445019E
:100EB000E2CF97FB072E16F4009407D077FD09D0F8
:100EC0000E948F0707FC05D03EF4909581959F4FB7
:100ED0000895709561957F4F0895A1E21A2EAA1B7F
:100EE000BB1BFD010DC0AA1FBB1FEE1FFF1FA217DA
:100EF000B307E407F50720F0A21BB30BE40BF50BD7
:100F0000661F771F881F991F1A9469F7609570955F
:100F1000809590959B01AC01BD01CF010895AA1B5E
:100F2000BB1B51E107C0AA1FBB1FA617B70710F0D4
:100F3000A61BB70B881F991F5A95A9F78095909506
:100F4000BC01CD0108955058BB27AA270E94BB07BA
:100F50000C94C3080E94B50838F00E94BC0820F029
:100F600039F49F3F19F426F40C94B2080EF4E0957E
:100F7000E7FB0C94AC08E92F0E94D40858F3BA1789
:100F8000620773078407950720F079F4A6F50C949F
:100F9000F6080EF4E0950B2EBA2FA02D0B01B90127
:100FA00090010C01CA01A0011124FF27591B99F0DF
:100FB000593F50F4503E68F11A16F040A22F232FEB
:100FC000342F4427585FF3CF469537952795A7953B
:100FD000F0405395C9F77EF41F16BA0B620B730BE2
:100FE000840BBAF09150A1F0FF0FBB1F661F771F53
:100FF000881FC2F70EC0BA0F621F731F841F48F408
:10100000879577956795B795F7959E3F08F0B0CF90
:101010009395880F08F09927EE0F97958795089577
:101020000E94880808F481E008950E941C086894D2
:10103000B1110C94F70808950E94DC0888F09F57BE
:1010400098F0B92F9927B751B0F0E1F0660F771FEC
:10105000881F991F1AF0BA95C9F714C0B13091F0E2
:101060000E94F608B1E008950C94F608672F782FD7
:101070008827B85F39F0B93FCCF3869577956795A7
:10108000B395D9F73EF490958095709561957F4F13
:101090008F4F9F4F0895E89409C097FB3EF49095B9
:1010A0008095709561957F4F8F4F9F4F9923A9F041
:1010B000F92F96E9BB279395F695879577956795D0
:1010C000B795F111F8CFFAF4BB0F11F460FF1BC014
:1010D0006F5F7F4F8F4F9F4F16C0882311F096E9A7
:1010E00011C0772321F09EE8872F762F05C0662355
:1010F00071F096E8862F70E060E02AF09A95660F0E
:10110000771F881FDAF7880F9695879597F90895C6
:10111000990F0008550FAA0BE0E8FEEF1616170608
:10112000E807F907C0F012161306E407F50798F070
:10113000621B730B840B950B39F40A2661F0232B89
:10114000242B252B21F408950A2609F4A140A69505
:101150008FEF811D811D089597F99F6780E870E0EA
:1011600060E008959FEF80EC089500240A9416161D
:10117000170618060906089500240A941216130685
:10118000140605060895092E0394000C11F4882313
:1011900052F0BB0F40F4BF2B11F460FF04C06F5F2F
:1011A0007F4F8F4F9F4F089557FD9058440F551F05
:1011B00059F05F3F71F04795880F97FB991F61F0D9
:1011C0009F3F79F087950895121613061406551F50
:1011D000F2CF4695F1DF08C0161617061806991FBC
:1011E000F1CF86957105610508940895E894BB27B1
:1011F00066277727CB0197F908950E9410090C9470
:10120000C3080E94B50838F00E94BC0820F095235E
:1012100011F00C94AC080C94B20811240C94F7084B
:101220000E94D40870F3959FC1F3950F50E0551FAD
:10123000629FF001729FBB27F00DB11D639FAA272B
:10124000F00DB11DAA1F649F6627B00DA11D661F7A
:10125000829F2227B00DA11D621F739FB00DA11D9B
:10126000621F839FA00D611D221F749F3327A00D55
:10127000611D231F849F600D211D822F762F6A2FF1
:1012800011249F5750409AF0F1F088234AF0EE0F56
:10129000FF1FBB1F661F771F881F91505040A9F783
:1012A0009E3F510580F00C94AC080C94F7085F3F0A
:1012B000E4F3983ED4F3869577956795B795F795BF
:1012C000E7959F5FC1F7FE2B880F911D9695879537
:0812D00097F90895F894FFCF8F
:1012D80064007B48676E5C3E3F687F7CFFFEFEFED5
:1012E800FEFEFEFEFEFEFEFEFEFEFEFEFEFEFEFE16
:1012F800FEFEFEFEFEFFFEFEFEFEFEFEFEFE000001
:1013080000000000002F00000007000700147F14F1
:101318007F14242A7F2A122313086462364955222F
:10132800500005030000001C2241000041221C005F
:1013380014083E081408083E08080000A0600008C9
:1013480008080808006060000020100804023E51E8
:1013580049453E00427F400042615149462141458E
:101368004B311814127F1027454545393C4A4949E5
:101378003001710905033649494936064949291E8C
:1013880000363600000056360000081422410014CA
:101398001414141400412214080201510906324998
:1013A80059513E7C1211127C7F494949363E4141D0
:1013B80041227F4141221C7F494949417F0909094E
:1013C800013E4149497A7F0808087F00417F410072
:1013D8002040413F017F081422417F404040407F28
:1013E800020C027F7F0408107F3E4141413E7F0985
:1013F8000909063E4151215E7F0919294646494996
:10140800493101017F01013F4040403F1F204020FA
:101418001F3F4038403F63140814630708700807EB
:101428006151494543007F41410055AA55AA5500DD
:1014380041417F0004020102044040404040000353
:1014480005000020545454787F48444438384444B4
:101458004420384444487F3854545418087E0901BD
:101468000218A4A4A47C7F0804047800447D4000EA
:101478004080847D007F1028440000417F40007C2C
:10148800041804787C080404783844444438FC245C
:1014980024241818242418FC7C08040408485454EC
:1014A8005420043F4440203C4040207C1C204020E5
:1014B8001C3C4030403C44281028441CA0A0A07C80
:1014C8004464544C4400107C82000000FF0000007B
:1014D800827C10000006090906796F75004E756D4B
:1014E800626572206F662050656F706C653A2000E7
:1014F800446F6F72204C6F636B656400446F6F724A
:1015080020556E6C6F636B6564006675636B005085
:101518006C6561736520546F7563682054656D70E0
:101528002053656E736F7200456E746572206F6E1E
:101538006C7920696620796F752063616E20766505
:1015480072696679207468617420796F7520617298
:10155800656E2774207369636B00506C65617365F1
:0815680020456E74657200005D
:00000001FF
